:100143007F807E251200981201981201E48F0E120F
:1001530001DC7FF47E0112017FAF0E1201AC80EA55
:10017F00D3EF9400EE9400400F7DFADDFE7DF7DDA6
:08018F00FEEF1F70EB1E80E87B
:010197002245
:1001AC008F80D2A0C2A1D2A27F027E0012017FC298
:0201BC00A2227D
:1001BE008F80C2A0C2A1D2A27F027E0012017FC296
:0201CE00A2226B
:100198007F021201BE7F381201BE7F0E1201BE7FA0
:0401A800010201BE91
:10011E008B088A09890AAB08AA09A90A120003608A
:10012E0013050AE50A7002050914F9120003FF12FD
:05013E0001AC80E2228B
:10009800759850438920758DFDD28EEF8EF0120031
:1000A8006B00C11C2000C6258000CB384000D070F2
:1000B8008000D5E100000000DB758DFC8015758D92
:1000C800FD8010758DFE800B758DFF8006758DFC8B
:0600D800E4F587D28E2240
:0801DC008F993099FDC29922B0
:0801E4003098FDC298AF99228A
:10016300120003FFFD3395E04D60108F993099FD28
:0C017300C299740129F9E43AFA80E522EF
:0600DE008B0B8A0C890D5A
:1000E400E4FFEFC39D50243098FDC298AB0BAA0CDB
:1000F400A90D8F82758300E5991200498F8275835B
:100104000012001C640D60030F80D7AB0BAA0CA96E
:0A0114000D8F82758300E40200499C
:030000000201D02A
:0C01D000787FE4F6D8FD75810E02014333
:10000300BB010689828A83E0225002E722BBFE02FB
:09001300E32289828A83E493222E
:10001C00BB010CE58229F582E5833AF583E0225099
:10002C0006E92582F8E622BBFE06E92582F8E222E3
:0D003C00E58229F582E5833AF583E49322FD
:10004900F8BB010DE58229F582E5833AF583E8F0ED
:10005900225006E92582C8F622BBFE05E92582C899
:02006900F22281
:10006B00D083D082F8E4937012740193700DA3A324
:10007B0093F8740193F5828883E473740293B5F05B
:0D008B00067403936860E9A3A3A3A380D8C3
:00000001FF
